:060000000A128A110C280F
:10000800FE00030EF1000A08F2000A168A11602C9D
:100018000A128A110F288313C230FD001330FE0024
:100028009330FF00A03084000A168A1139230A127F
:100038008A110A128A11FB270A128A11EE00831606
:100048000313C701C801C901CA0183120313E201DE
:10005800E301E401E501E601E701E801E901EA015C
:10006800EB01EC01F801F901FA0183010A128A1582
:100078000E2C83120313DF000A168A1149250A126F
:100088008A111230831603134B06031D4C284D2882
:100098000D2A0A168A1128230A128A114D30831252
:1000A8000313A0009130A1008030D8005808A200A6
:1000B8000A168A112D240A128A117A088312031348
:1000C800D8005807A03E840083130008A000840AC3
:1000D80000088403A1008630DA005A08A2000A1634
:1000E8008A112D240A128A11683083120313A00082
:1000F8009130A100C030D8005808A2000A168A1111
:100108002D240A128A11C63083120313D800580806
:10011800A4000A30F3000030F4006C08D900DA01BA
:100128005908F5005A08F6000A168A11B1250A126C
:100138008A117308303E0A168A1148230A128A1156
:10014800C73083120313D8005808A4000A30F300FC
:100158000030F4006C08D900DA015908F5005A0893
:10016800F6000A168A11EE240A128A117308303E24
:100178000A168A1148230A128A11C83083120313F7
:10018800D8005808A4003A300A168A1148230A12DF
:100198008A11C93083120313D8005808A4000A3002
:1001A800F3000030F4007808D900DA015908F500A6
:1001B8005A08F6000A168A11B1250A128A1173081C
:1001C800303E0A168A1148230A128A11CA3083124D
:1001D8000313D8005808A4000A30F3000030F400D4
:1001E8007808D900DA015908F5005A08F6000A1605
:1001F8008A11EE240A128A117308303E0A168A11EF
:1002080048230A128A11453083120313A000913043
:10021800A1009530D8005808A2000A168A112D248A
:100228000A128A11333083120313DA00BB30D90063
:10023800DF30D800D80B1E29D90B1E29DA0B1E294E
:100248000A168A1128230A128A11DF30831203132F
:10025800A0009030A1008030D8005808A2000A16EB
:100268008A112D240A128A11803083120313A000E8
:100278009130A100C030D8005808A2000A168A118F
:100288002D240A128A11443083120313A0009030DF
:10029800A100D030D8005808A2000A168A112D24CF
:1002A8000A128A11831203136C08D800D90158085E
:1002B800F3005908F4003C30F5000030F6000A1647
:1002C8008A1102240A128A11780873078312031309
:1002D800E4000030031801307407E5006508E30006
:1002E8006408E2006408F3006508F4000030F41BB9
:1002F800FF30F500F60001300A168A1144270A1269
:100308008A11760883120313B1007508B0007408C7
:10031800AF007308AE003E30AD00CC30AC00CC303E
:10032800AB00CD30AA000A128A1139240A128A11A8
:10033800831203132D08C7002C08C6002B08C5001C
:100348002A08C4000A128A1505200A128A11831283
:1003580003134508E9004408E8006408F300650849
:10036800F4000030F41BFF30F500F60001300A16E7
:100378008A1144270A128A11760883120313B100DE
:100388007508B0007408AF007308AE003D30AD00CA
:10039800F530AC00C230AB008F30AA000A128A11C7
:1003A80039240A128A11831203132D08C7002C0856
:1003B800C6002B08C5002A08C4000A128A150520A1
:1003C8000A128A11831203134508E7004408E6005D
:1003D8006809D8006909D900D80A0319D90A660832
:1003E8005802DA006708031C670A5902DB00640830
:1003F8005A0783160313C9008312031365080318E9
:10040800650A5B0783160313CA00831203131215C8
:1004180007151F3083125F06031D132A142A1A2A90
:10042800121107110530D8005808ED006C08D800E3
:10043800D9015808F3005908F4003C30F5000030A1
:10044800F6000A168A1102240A128A11780873071C
:1004580083120313E4000030031801307407E50029
:1004680008307A020318392A3A2AA72A6808620249
:10047800D8006908031C690A6302D9006508803A34
:10048800DA005908803A5A02031D4C2A58086402B7
:10049800031C4F2A502A602AFB3083120313A00042
:1004A8009030A1008B30D8005808A2000A168A1193
:1004B8002D240A128A11682B831203136809D800A5
:1004C8006909D900D80A0319D90A66085802DA0056
:1004D8006708031C670A5902DB0062085A07DC0038
:1004E80063080318630A5B07DD006508803ADE00CD
:1004F8005D08803A5E02031D832A5C086402031CBF
:10050800862A872A972A6E3083120313A000913017
:10051800A1008B30D8005808A2000A168A112D2491
:100528000A128A11682B623083120313A0009130DB
:10053800A1008B30D8005808A2000A168A112D2471
:100548000A128A11682B08307A06031DAC2AAD2AD4
:10055800472B6408F3006508F4000030F41BFF30F3
:10056800F500F60001300A168A1144270A128A118A
:10057800760883120313CF007508CE007408CD00E7
:100588007308CC006208F3006308F4000030F41B21
:10059800FF30F500F60001300A168A1144270A12C6
:1005A8008A11760883120313CB007508CA007408F1
:1005B800C9007308C8006208F3006308F40000303B
:1005C800F41BFF30F500F60001300A168A114427A3
:1005D8000A128A11760883120313B1007508B00055
:1005E8007408AF007308AE003E30AD00CC30AC00EC
:1005F800CC30AB00CD30AA000A128A1139240A1275
:100608008A11831203132D08C7002C08C6002B0873
:10061800C5002A08C4000A168A11B5230A128A11CD
:10062800831203134708D3004608D2004508D100B7
:100638004408D0000A168A11A0260A128A11031C3F
:10064800262B272B372B6E3083120313A0009130F3
:10065800A1008B30D8005808A2000A168A112D2450
:100668000A128A11682B623083120313A00091309A
:10067800A1008B30D8005808A2000A168A112D2430
:100688000A128A11682B09307A06031D4C2B4D2B50
:100698005B2B6E30A0009130A1008B30D800580839
:1006A800A2000A168A112D240A128A11682BFB301F
:1006B800A0009030A1008B30D8005808A2000A167C
:1006C8008A112D240A128A11C63083120313D80006
:1006D8005808A4000A30F3000030F4006C08D90070
:1006E800DA015908F5005A08F6000A168A11B125E8
:1006F8000A128A117308303E0A168A1148230A1210
:100708008A11C73083120313D8005808A4000A308E
:10071800F3000030F4006C08D900DA015908F5003C
:100728005A08F6000A168A11EE240A128A1173086A
:10073800303E0A168A1148230A128A11C8308312D9
:100748000313D8005808A4003A300A168A1148231F
:100758000A128A11C93083120313D8005808A4005A
:100768000A30F3000030F4007808D900DA0159089B
:10077800F5005A08F6000A168A11B1250A128A11DC
:100788007308303E0A168A1148230A128A11CA30A1
:1007980083120313D8005808A4000A30F30000306D
:1007A800F4007808D900DA015908F5005A08F6006B
:1007B8000A168A11EE240A128A117308303E0A16A4
:1007C8008A1148230A128A117808031DEC2BED2B95
:1007D800382C831203136C08031DF32BF42B382CCD
:1007E8001211071187140A168A1128230A128A116E
:1007F800663083120313A0009030A1008030D80027
:100808005808A2000A168A112D240A128A11863065
:1008180083120313A0009030A100C030D8005808FC
:10082800A2000A168A112D240A128A113330831263
:100838000313DA00BB30D900DF30D800D80B222CE4
:10084800D90B222CDA0B222C831203138710ED010B
:10085800ED0A1030D800580883160313CB000A1687
:100868008A1128230A128A110800831203132D08FB
:100878008039B2003208B7002D08B2003207B30041
:100888003308BD00AC1F492C4A2C4B2C3D143D08A5
:1008980003194F2C502C5F2C3D0A031D542C552C4A
:1008A8005D2C0030AD000030AC000030AB000030F3
:1008B800AA00AC17672C0030AD000030AC00003047
:1008C800AB000030AA0031088039B2003208B70600
:1008D8003108B2003207B3003308B800B01F752CD6
:1008E800762C772C3814380803197B2C7C2C8B2C0D
:1008F800380A031D802C812C892C0030B10000306F
:10090800B0000030AF000030AE00B017932C0030BC
:10091800B1000030B0000030AF000030AE00380841
:100928000319972C982C9D2C3D08031D9C2C9D2C5D
:10093800A62C0030AD000030AC000030AB00003019
:10094800AA00992F2A08B2003208F30030080A16C4
:100958008A11D9230A128A11740883120313C30057
:100968007308C2004208B200B301B401B5013508EA
:10097800BC003408BB003308BA003208B900430889
:10098800B200B301B401B5013508C1003408C00094
:100998003308BF003208BE002B08B2003208F3004B
:1009A8002F080A168A11D9230A128A117408831289
:1009B8000313C3007308C2004208B200B301B401B4
:1009C800B5013208B907330803110318013E0319AA
:1009D800EE2CBA07340803110318013E0319F52C4D
:1009E800BB07350803110318013E0319FC2CBC078B
:1009F8004308B200B301B401B5013208BE07330899
:100A080003110318013E03190A2DBF073408031107
:100A18000318013E0319112DC007350803110318E7
:100A2800013E0319182DC1072C08B2003208F30043
:100A38002E080A168A11D9230A128A1174088312F9
:100A48000313C3007308C2004208B200B301B40123
:100A5800B5013208B907330803110318013E031919
:100A6800362DBA07340803110318013E03193D2D2A
:100A7800BB07350803110318013E0319442DBC07B1
:100A88004308B200B301B401B5013208BE07330808
:100A980003110318013E0319522DBF07340803112F
:100AA8000318013E0319592DC0073508031103180F
:100AB800013E0319602DC1070830B2000310B90DBB
:100AC800BA0DBB0DBC0DB20B622D2B08B20032085B
:100AD800F3002E080A168A11D9230A128A117408FB
:100AE80083120313C3007308C2004208B20043080C
:100AF800B300B401B5013208B9073308031103186C
:100B0800013E0319882DBA07340803110318013E62
:100B180003198F2DBB07350803110318013E03196C
:100B2800962DBC072A08B2003208F3002F080A16CF
:100B38008A11D9230A128A11740883120313C30075
:100B48007308C2004208B2004308B300B401B501FB
:100B58003208B907330803110318013E0319B52DEC
:100B6800BA07340803110318013E0319BC2DBB074B
:100B7800350803110318013E0319C32DBC070830BB
:100B8800B2000310B90DBA0DBB0DBC0DB20BC52DCB
:100B98002A08B2003208F3002E080A168A11D9234F
:100BA8000A128A11740883120313C3007308C2005F
:100BB8004208B2004308B300B401B5013208B907CE
:100BC800330803110318013E0319EB2DBA07340843
:100BD80003110318013E0319F22DBB073508031151
:100BE8000318013E0319F92DBC072B08B20032087F
:100BF800F30030080A168A11D9230A128A117408D8
:100C080083120313C3007308C2004208B2004308EA
:100C1800B300B401B5013208BE0733080311031845
:100C2800013E0319182EBF07340803110318013EAB
:100C380003191F2EC007350803110318013E0319B5
:100C4800262EC1072C08B2003208F3002F080A1616
:100C58008A11D9230A128A11740883120313C30054
:100C68007308C2004208B2004308B300B401B501DA
:100C78003208BE07330803110318013E0319452E35
:100C8800BF07340803110318013E03194C2EC0078F
:100C9800350803110318013E0319532EC1072C0808
:100CA800B2003208F30030080A168A11D9230A1252
:100CB8008A11740883120313C3007308C200420820
:100CC800B2004308B300B401B50108300310B20DF7
:100CD800B30DB40DB50DFF3E031D6A2E3208BE07D5
:100CE800330803110318013E03197B2EBF0734088C
:100CF80003110318013E0319822EC007350803119A
:100D08000318013E0319892EC1073908B2003A08B1
:100D1800B3003B08B4003C08B50018300310B50C0C
:100D2800B40CB30CB20CFF3E031D922E3208BE0762
:100D3800330803110318013E0319A32EBF07340813
:100D480003110318013E0319AA2EC0073508031121
:100D58000318013E0319B12EC1070830B200031071
:100D6800B90DBA0DBB0DBC0DB20BB32E3D0838073B
:100D7800B200B301B30D3208823EC2003308031833
:100D8800013EFF3EC300E52E0130B2000310BE0D48
:100D9800BF0DC00DC10DB20BCA2EBC1FD42ED52E4F
:100DA800D62E3E140130B2000310B90DBA0DBB0D9A
:100DB800BC0DB20BD82EFF30C2070318C30AFF3090
:100DC800C307C01FE82EE92EC82EB801BC1FED2EA0
:100DD800EE2E0A2FFF303905B200FF303A05B30076
:100DE800FF303B05B4007F303C05B50035083404BE
:100DF800330432040319012F022F052FB801B80A52
:100E08000A2F3E1C082F092F0A2F022F3808031912
:100E18000E2F0F2F402F0130BE070030031801306E
:100E2800BF07003003180130C00700300318013035
:100E3800C107411C202F212F402F3E08B2003F0838
:100E4800B3004008B4004108B5000130B600350DC4
:100E5800B50CB40CB30CB20CB60B2B2F3508C10073
:100E68003408C0003308BF003208BE000130C20792
:100E78000318C30A0030C3074308803AFF008030D4
:100E88007F02031D492FFF304202031C4C2F4D2FB8
:100E9800582F7F3083120313C1008030C000003008
:100EA800BF000030BE008D2F831203134308803A21
:100EB800FF0080307F02031D632F013042020318B8
:100EC800662F672F732F003083120313C100003081
:100ED800C0000030BF000030BE00B7018D2F831264
:100EE80003134208B2003208BD00FF30BE05FF30D0
:100EF800BF057F30C0050030C1053D1C842F852FFC
:100F0800862FC0173D08B2000310320CB300330817
:100F1800C1003708B2003208C1044108AD004008DA
:100F2800AC003F08AB003E08AA000800F4007408B3
:100F3800031D9F2FA02FA52F8312031306083F39E7
:100F4800FA2F3F30831203130605F3003F30730670
:100F58000319AF2FB02FBD2F6E080319B42FB52F6B
:100F6800BD2FEE01EA0106083F39F3007308EB00D4
:100F7800F92F6E08031DC12FC22FD42F06083F3941
:100F88006B06031DC82FC92FD42F1E306A02031801
:100F9800CE2FCF2FD42F0130F3007308EA07F92F93
:100FA8001E306A06031DD92FDA2FE12F0130F30016
:100FB8007308EA076B088038FA2F3F300605F300FC
:100FC8003F307306031DE92FEA2FF92F6E08031D22
:100FD800EE2FEF2FF92FEE01EE0A1E306A020318EA
:100FE800F62FF72FF92F6B08FA2F3F30080001343E
:10100A00031083120313460D470DC8004808CE008B
:10101A004E08031D112812281B280030C700003073
:10102A00C6000030C5000030C40080284408C8004B
:10103A004508C9004608CA004708CB001F300310FC
:10104A00CB0CCA0CC90CC80CFF3E031D2428480847
:10105A00CC004C08CD00C617FF30C405FF30C505CB
:10106A00FF30C6050030C7059630CE02CE1F3E2897
:10107A003F2859284E08803A973E031845284628A3
:10108A004728122801300310C70CC60CC50CC40C23
:10109A00FF3E031D48280130C8004808CE07031D3B
:1010AA00572858284728702820304E02031C5E28EB
:1010BA005F286B2812280130C8000310C40DC50D23
:1010CA00C60DC70DC80B62280130CE024E08031D9B
:1010DA006F28702860284D080319742875288028FD
:1010EA00C409C509C609C709C40A0319C50A0319E7
:1010FA00C60A0319C70A080083120313A90010308D
:10110A00831603134B06031D8B288C2892280A1674
:10111A008A1128230A128A15FA0137308312031317
:10112A002906031D99289A28AA280130A60026080C
:10113A00FA070C307A06031DA328A428A528FA0169
:10114A000A168A1128230A128A1576308312031383
:10115A00A0009030A1008030A6002608A2000A163E
:10116A008A112D240A128A15C03083120313A6008D
:10117A002608A4003E300A168A1148230A128A1544
:10118A000A307A020318CA28CB2811297A0883124E
:10119A000313A6002607A03E840083130008A000BC
:1011AA00840A00088403A100C230A8002808A2000B
:1011BA000A168A112D240A128A157A088312031331
:1011CA00A6002607A23E840083130008A000840A12
:1011DA0000088403A1009230A8002808A2000A1679
:1011EA008A112D240A128A157A0883120313A6007B
:1011FA002607A43E840083130008A000840A00087E
:10120A008403A100D230A8002808A2000A168A1175
:10121A002D240A128A15A2290A307A06031D1629D4
:10122A0017295B297A0883120313A6002607A03E12
:10123A00840083130008A000840A00088403A10024
:10124A00C230A8002808A2000A168A112D240A1200
:10125A008A157A0883120313A6002607A23E840081
:10126A0083130008A000840A00088403A1009230B6
:10127A00A8002808A2000A168A112D240A128A1523
:10128A0083160313200883120313A0008316031383
:10129A00210883120313A100D230A6002608A20057
:1012AA000A168A112D240A128A15A2290B307A06E7
:1012BA00031D60296129A2297A0883120313A60053
:1012CA002607A03E840083130008A000840A0008B1
:1012DA008403A100C230A8002808A2000A168A11B5
:1012EA002D240A128A158316031320088312031366
:1012FA00A00083160313210883120313A10092305E
:10130A00A6002608A2000A168A112D240A128A1596
:10131A0083160313220883120313A00083160313F0
:10132A00230883120313A100D230A6002608A200C4
:10133A000A168A112D240A128A1508008312031329
:10134A00A9001130831603134B06031DAD29AE29DC
:10135A00B429F9010A168A1128230A128A15373084
:10136A00831203132906031DBB29BC29CC2901308A
:10137A00A6002608F90705307906031DC529C629DE
:10138A00C729F9010A168A1128230A128A15D330A5
:10139A0083120313A0009030A1008030A600260813
:1013AA00A2000A168A112D240A128A15C030831245
:1013BA000313A6002608A4003E300A168A11482301
:1013CA000A128A15033079020318EC29ED29332A07
:1013DA00790883120313A6002607B83E84008313F4
:1013EA000008A000840A00088403A100C230A800F3
:1013FA002808A2000A168A112D240A128A157908C9
:10140A0083120313A6002607BA3E8400831300083A
:10141A00A000840A00088403A1009230A8002808CA
:10142A00A2000A168A112D240A128A157908831233
:10143A000313A6002607BC3E840083130008A000FD
:10144A00840A00088403A100D230A8002808A20058
:10145A000A168A112D240A128A15C42A033079061B
:10146A00031D382A392A7D2A790883120313A60014
:10147A002607B83E840083130008A000840A0008E7
:10148A008403A100C230A8002808A2000A168A1103
:10149A002D240A128A15790883120313A600260737
:1014AA00BA3E840083130008A000840A000884035B
:1014BA00A1009230A8002808A2000A168A112D2439
:1014CA000A128A1583160313380883120313A0001D
:1014DA0083160313390883120313A100D230A6001E
:1014EA002608A2000A168A112D240A128A15C42A6D
:1014FA0004307906031D822A832AC42A79088312B2
:10150A000313A6002607B83E840083130008A00030
:10151A00840A00088403A100C230A8002808A20097
:10152A000A168A112D240A128A15831603133808FB
:10153A0083120313A00083160313390883120313BB
:10154A00A1009230A6002608A2000A168A112D24AC
:10155A000A128A15831603133A0883120313A0008A
:10156A00831603133B0883120313A100D230A6008B
:10157A002608A2000A168A112D240A128A150800C2
:10158A00DF2B2130F3007308F80083120313EC01F8
:10159A000D2C2930F3007308F800CA2A2D30F30005
:1015AA007308F800CA2A7908F300F4017408003AAB
:1015BA000319E02A0D2C7308003A0319CE2A013ABE
:1015CA000319C62A033A0319CE2A013A0319D32A60
:1015DA00073A0319D32A0D2C2B30F3007308F800AD
:1015EA0083120313EC013230F3007308F8008312FC
:1015FA000313EC010D2C3930F3007308F800CA2AE2
:10160A007908F300F4017408003A03190D2B0D2C24
:10161A007308003A0319F82A013A0319F12A033A1E
:10162A000319F82A013A0319002B073A0319002B68
:10163A000D2C1A30F3007308F800CA2A1F30F30081
:10164A007308F800CA2A7908F300F4017408003A0A
:10165A000319302B0D2C7308003A03191E2B013A7B
:10166A0003191E2B033A03191E2B013A0319232BC4
:10167A00073A0319232B0D2C1030F3007308F800D6
:10168A0083120313EC01EC0A0D2C2430F3007308C7
:10169A00F80083120313EC01EC0A1C30F300730800
:1016AA00F800CA2A1D30F3007308F8000D2C2E30FA
:1016BA00F3007308F80083120313EC013530F300CA
:1016CA007308F80083120313EC010D2C3C30F3006D
:1016DA007308F800CA2A7908F300F4017408003A7A
:1016EA000319782B0D2C7308003A0319632B013A5E
:1016FA0003195C2B033A0319632B013A03196B2B69
:10170A00073A03196B2B0D2C1230F3007308F800FB
:10171A0083120313EC01912B1430F3007308F800C1
:10172A0083120313EC010D2C7908F300F4017408F9
:10173A00003A0319A12B0D2C7308003A0319912BB7
:10174A00013A0319892B033A0319912B013A031918
:10175A00912B073A0319912B0D2C0630F3007308CD
:10176A00F8000D2C1030F3007308F80083120313ED
:10177A00EC011530F3007308F80083120313EC012F
:10178A000D2C7908F300F4017408003A0319CE2BE2
:10179A000D2C7308003A0319BE2B013A0319B72B13
:1017AA00033A0319BE2B013A03191E2B073A0319F0
:1017BA001E2B0D2C7A08F300F4017408003A031961
:1017CA00E72B0D2C7308003A0319D82A013A03199A
:1017DA00052B033A0319282B013A0319412B073A1F
:1017EA0003194A2B013A0319522B033A0319572BAF
:1017FA00013A0319702B0F3A0319992B013A03196D
:10180A00B22B033A0319C62B013A0319C62B0D2C26
:10181A00080083120313ED01ED0A1030E00060089E
:10182A0083160313CB000A168A115D230A128A153E
:10183A00223083120313A0009030A1008030E00010
:10184A006008A2000A168A112D240A128A1500308D
:10185A0083120313A0009030A100C030E00060089A
:10186A00A2000A168A112D240A128A1555308312EB
:10187A000313A0009030A1009030E0006008A2009D
:10188A000A168A112D240A128A155F2CB83083167B
:10189A000313C2000B30C300FF30C2070318C30A88
:1018AA00FF30C307420A031D5E2C430A031D5E2C48
:1018BA005F2C512C01300A128A119A270A128A15B2
:1018CA002F3A031D692C6A2C4B2C0A168A112823DD
:1018DA000A128A150A168A111A260A128A1501305C
:1018EA000A128A119A270A128A1583120313E00030
:1018FA00600883160313C600B830C4000B30C50055
:10190A00FF30C4070318C50AFF30C507440A031D80
:10191A00922C450A031D922C932C852CB73046062F
:10192A00031D982C992CAB2C831203136D03031DF2
:10193A009F2CA02CAB2C0230E0006008ED00113087
:10194A00E000600883160313CB00522DB7308316CC
:10195A0003134606031DB22CB32CF92C0230831252
:10196A0003136D06031DBA2CBB2CF92C0A128A1517
:10197A00C5220A128A150A168A1128230A128A15FA
:10198A00AE3083120313A0009030A1008030E00033
:10199A006008A2000A168A112D240A128A159430A8
:1019AA0083120313A0009030A100C030E000600849
:1019BA00A2000A168A112D240A128A15BB30831234
:1019CA000313A0009030A1009030E0006008A2004C
:1019DA000A168A112D240A128A1503308312031358
:1019EA00E0006008ED00522D2F30831603134606DF
:1019FA00031D002D012D102D0530831203136D06D2
:101A0A00031D082D092D102D121507150430E000AD
:101A1A006008ED00522D522D8316031346080A1250
:101A2A008A1581200A128A15692D8316031346081E
:101A3A000A128A15A3210A128A15692D2F308316D4
:101A4A0003134606031D2A2D2B2D382D043083122D
:101A5A000313E0006008ED001230E000600883160E
:101A6A000313CB00742C1F304606031D3D2D3E2D5B
:101A7A00692D83120313ED01ED0A1030E0006008AE
:101A8A0083160313CB00742C8316031346080A1219
:101A9A008A113D200A128A15692D83126D08E00009
:101AAA00E1016108003A03195B2D692D6008013ACA
:101ABA000319112D033A03191A2D013A0319232D7B
:101ACA00073A0319492D692D83160313CB01742C88
:101ADA000A128A110C288312031323088039A800DA
:101AEA002808F3002308A8002807A9002908F500F8
:101AFA00A21F802D812D822D751475080319862D3C
:101B0A00872D972D750A031D8B2D8C2D942D003052
:101B1A00A3000030A2000030A1000030A000A217EC
:101B2A00A3019F2D0030A3000030A2000030A100C5
:101B3A000030A00027088039A8002808F40074089B
:101B4A0073060319A92DAA2DAB2D73172708A80010
:101B5A002807A9002908F400A61FB42DB52DB62D13
:101B6A00741474080319BA2DBB2DCB2D740A031DE6
:101B7A00BF2DC02DC82D0030A7000030A6000030B0
:101B8A00A5000030A400A617A701D32D0030A70096
:101B9A000030A6000030A5000030A40075087402C9
:101BAA000318D82DD92D1D2E731FDC2DDD2DE12D07
:101BBA008030A8002808F3067508A8002808F6004F
:101BCA007408A8002808F5007608A8002808F40078
:101BDA002008A8002808F6002408A8002808A00061
:101BEA007608A8002808A4002108A8002808F600FA
:101BFA002508A8002808A1007608A8002808A5003A
:101C0A002208A8002808F6002608A8002808A2002A
:101C1A007608A8002808A6002308A8002808F600C5
:101C2A002708A8002808A3007608A8002808A70003
:101C3A00F6017408A800A9012908AB007508280252
:101C4A00AA00031CAB032B08803AFF0080307F02F6
:101C5A00031D312E1A302A02031C342E352E762EFD
:101C6A00831203132308220421042004031D3E2E99
:101C7A00402E0130412E0030A8002808F60000301E
:101C8A00A3000030A2000030A1000030A0007408B8
:101C9A00A8002808F5007C2E761C542E552E602E9E
:101CAA00760883120313A8000310280C0138A90030
:101CBA002908F600622E0310F60C83120313201C67
:101CCA00672E682E692EF6170130A800230DA30C83
:101CDA00A20CA10CA00CA80B6B2E0130A80028089E
:101CEA00F50774087502031C7B2E7C2E512E731B7C
:101CFA007F2E802ECF2E7508031D842E852E902EC2
:101D0A00003083120313A3000030A2000030A100A8
:101D1A000030A000FF2F831203132408A007250810
:101D2A0003110318013E03199B2EA107260803116C
:101D3A000318013E0319A22EA2072708031103184C
:101D4A00013E0319A92EA307231CAC2EAD2E852F05
:101D5A00761CB02EB12EBA2E7608A8000310280CD5
:101D6A000138A9002908F600BC2E0310F60C201C25
:101D7A00BF2EC02EC12EF6170130A800230DA30CCA
:101D8A00A20CA10CA00CA80BC32E0130A800280895
:101D9A00F507852F831203132308803AFF002708CB
:101DAA00803A7F02031DE32E26082202031DE32E3A
:101DBA0025082102031DE32E240820020318E62E1B
:101DCA00E72E3F2FFF30A800FF30A900FF30AA00FE
:101DDA00FF30AB002408AC002508AD002608AE0091
:101DEA002708AF002008AC022108031C210FFE2E91
:101DFA00FF2EAD022208031C220F042F052FAE026C
:101E0A002308031C230F0A2F0B2FAF022C08A80745
:101E1A002D0803182D0F122F132FA9072E080318A8
:101E2A002E0F182F192FAA072F0803182F0AAB07EE
:101E3A002B08A3002A08A2002908A1002808A0004C
:101E4A008030A8002808F306F609F60A7608031D6A
:101E5A002F2F302F4D2F0130A007003003180130EB
:101E6A00A107003003180130A2070030031801301F
:101E7A00A3074D2F2408A0022508031C250FA10241
:101E8A002608031C260FA2022708031C270FA302F9
:101E9A002308220421042004031D542F552F812FC7
:101EAA007608031D592F5A2F812F0030A3000030C6
:101EBA00A2000030A1000030A000FF2F0130A800CE
:101ECA000310A00DA10DA20DA30DA80B652FF61FDF
:101EDA006F2F702F712F2014761C742F752F782F67
:101EEA000314F60D7A2F0310F60D750803197E2FC9
:101EFA007F2F812F0130F502A21F842F852F632F98
:101F0A00F401F61F892F8A2F982F76087F39031933
:101F1A008F2F902F932FF401F40A982F201C962FBD
:101F2A00972F982F902F740803199C2F9D2FD12F2C
:101F3A000130A007003003180130A1070030031850
:101F4A000130A207003003180130A307231CAE2F6B
:101F5A00AF2FD12F2008A8002108A9002208AA0023
:101F6A002308AB000130AC002B0DAB0CAA0CA90C5A
:101F7A00A80CAC0BB92F2B08A3002A08A200290829
:101F8A00A1002808A000750A0319CC2FCD2FD12F44
:101F9A000130A8002808F507750A0319D52FD62F8E
:101FAA00DB2F7508031DDA2FDB2FE92F0030A30082
:101FBA000030A2000030A1000030A0007508031D07
:101FCA00E72FE82FE92FF301751CEC2FED2FEF2FE8
:101FDA00A217F32F7F30A8002808A2057508A800C9
:101FEA000310280CA9002908A300F31FFD2FFE2FB8
:101FFA00FF2FA31708002034203420342034503413
:10200A006F3477346534723420344F344E3420348C
:10201A0020342034203400342034203450344F34D7
:10202A0057344534523449344E34473420344F34CB
:10203A004E34203420342034003420345034723466
:10204A0065347334733420344B346534793435341D
:10205A00203454346F34203420340034203457343C
:10206A0041345334483449344E34473420344D349F
:10207A0041344334483449344E34453400343534D9
:10208A002D345334543441345234543420342034AB
:10209A0036342D34503441345534533445340034B5
:1020AA002034573461347334683469346E34673495
:1020BA0020344D3461346334683469346E346534A1
:1020CA000034503472346F3467342E34203443343D
:1020DA006F346D3470346C346534743465346434FC
:1020EA000034573461347334683469346E34673475
:1020FA002034503472346F346734723461346D343E
:10210A000034523465346D346F3476346534203497
:10211A0043346C346F347434683473340034203488
:10212A005334573435343A342034533454344134E4
:10213A00523454342034003450346C3465346134AD
:10214A0073346534203443346C346F3473346534F7
:10215A000034503472346534733473342034533455
:10216A007734693474346334683400342034533433
:10217A00573436343A342034533454344F34503488
:10218A002034003444344F344F34523420343A34F7
:10219A0020344F34503445344E340034573461348B
:1021AA0074346534723420344C346534763465348E
:1021BA006C340034463475346E34633474346934A0
:1021CA006F346E3420342D34003441347134753414
:1021DA0061342034733474346F34723465340034A7
:1021EA0053347434613469346E342034573461346E
:1021FA00733468340034453463346F3443346F3491
:10220A00743474346F346E34733400344434653443
:10221A006C3469346334613474346534733400342F
:10222A004234653464345334683465346534743400
:10223A0073340034573461347334683420344F347F
:10224A006E346C3479340034523469346E347334F5
:10225A0065342B34443472347934003457346F344F
:10226A006F346C346C3465346E34733400344434F3
:10227A007234793420346F346E346C3479340034E7
:10228A0028344D344D343A345334533429340034D9
:10229A00503472346F3467343A34203400344D3455
:1022AA0065346434693475346D34003457346834B1
:1022BA006934743465347334003453347034693493
:1022CA006E3420340034543469346D3465343A340D
:1022DA000034523469346E3473346534003444340F
:1022EA00613469346C347934003448346534613487
:1022FA00763479340034543449344D344534003416
:10230A004834693467346834003441347534743479
:10231A006F3400344C346F34773400344D346134C4
:10232A0078340034FF1BA12983137F188317000810
:10233A00840A0319FF0A08007F087F398A00040803
:08234A00840A0319FF0A820056
:102614008316031306083F38860008008316031345
:102624008801091189100A168A119C240A168A1134
:1026340008008312031312149214FA30831603133E
:1026440092008C148312031312110800F301013059
:102654000A168A1173230A168A11A630F700F70B9B
:10266400312B000008007E088A007F0882000A16C9
:102674008A1135230A168A118000840A04087D060B
:1026840003190034FF0A0319FE0A392B83120313BA
:10269400A500F30124080A168A1173230A168A1165
:1026A400F301F30A8312031325080A168A1173230C
:1026B4000A168A1108000A168A1110230A168A11AA
:1026C4000A168A110A230A168A110A168A111B236A
:1026D4000A168A1183160313071187100B178B1719
:1026E4000800F6007318772B7B2B8312031309154C
:1026F4007E2B831203130911760888008914A630EF
:10270400F400F40B832B00008312031389101B3095
:10271400F5009E30F400F40B8D2BF50B8D2B00008F
:102724000800743491347A3491340B3491345B342A
:102734009134F53490340034913433349134153475
:102744009134293491343C3491341F349134EA3433
:1027540090348A3491348F349134543491348534A0
:10276400913493349134803083120313C7064B0899
:10277400A3004A08A2004908A1004808A00047088D
:10278400A7004608A6004508A5004408A4000A12AC
:102794008A1570250A168A11831203132308C700A9
:1027A4002208C6002108C5002008C40008008312BE
:1027B4000313A400A001A1017308F500F601750834
:1027C400A2007608A300241CE82BE92BEF2B220897
:1027D400A0070318A10A2308A10701300310A20DC2
:1027E400A30DFF3E031DF02B0310A40C2408031DAE
:1027F400FC2BFD2BE52B2108F4002008F300080036
:1028040083120313A001A101731C092C0A2C122C9E
:10281400750883120313A0070318A10A7608A107F9
:1028240001300310F50DF60DFF3E031D132C01308E
:102834000310F40CF30CFF3E031D1A2C73087404EC
:10284400031D252C262C062C831203132108F400C7
:102854002008F3000800F3018312031322080A1668
:102864008A1173230A168A114F2CF301F30A2108E3
:10287400FF00200884000A168A1197210A168A117B
:102884000A168A1173230A168A110130831203135C
:10289400A0070318A10A0030A1078312031321081B
:1028A400FF00200884000A168A1197210A168A114B
:1028B400003A031D5E2C5F2C372C0800831203138F
:1028C4008C1C652C662C952C013083160313C707CA
:1028D4000318C80A0030C807E23047060430031959
:1028E4004806031D762C772C932CC701C801780861
:1028F40003197D2C7E2C812C0130F802932C78084E
:10290400031D852C862C932C831203136C08031946
:102914008C2C8D2C932C0130EC023B30F000700891
:10292400F80083128C1072088A00710E8300FE0E68
:102934007E0E0900C33083120313A100CC30A00023
:10294400A00BA22CA10BA22C0000F30133300A1619
:102954008A1173230A168A111B3083120313A100F0
:102964009D30A000A00BB42CA10BB42CB92CF30106
:1029740033300A168A1173230A168A11A53083127A
:102984000313A000A00BC42CC72CF30133300A1688
:102994008A1173230A168A11CF2CD02C0000F3015C
:1029A40001300A168A1173230A168A11A53083127C
:1029B4000313A000A00BDC2CDF2CF3010C300A164F
:1029C4008A1173230A168A11A53083120313A000F7
:1029D400A00BEA2CED2C080083120313A101F61FAF
:1029E400F42CF52CFC2CF509F609F50A0319F60A62
:1029F400A101A10AF41FFF2C002D052DF309F409F0
:102A0400F30A0319F40A7308740403190A2D0B2D2D
:102A14003A2DA001A00A192D01300310F30DF40D75
:102A2400FF3E031D0F2D0130F7007708A007F41FA8
:102A34001C2D1D2D0E2D74087602031D232D7308E5
:102A44007502031C262D272D2D2D7308F5027408FD
:102A5400031CF603F60201300310F40CF30CFF3EE2
:102A6400031D2E2D0130A002031D392D3A2D1D2DDD
:102A7400210803193E2D3F2D442DF509F609F50AC9
:102A84000319F60A7608F4007508F30008008312A7
:102A9400031306184E2D4F2DB02D87140711121154
:102AA4000A168A1128230A168A11C73083120313BF
:102AB400A0009030A1008030A3002308A2000A16D1
:102AC4008A112D240A168A11A13083120313A0003F
:102AD4009030A1009030A3002308A2000A168A11A6
:102AE4002D240A168A1183120313061C7A2D7B2DBA
:102AF400752D0A168A1128230A168A1183120313C4
:102B0400071512158710DF30A0009030A100803027
:102B1400A3002308A2000A168A112D240A168A117A
:102B2400803083120313A0009130A100C030A300B1
:102B34002308A2000A168A112D240A168A11443089
:102B440083120313A0009030A100D030A300230807
:102B5400A2000A168A112D240A168A11080083126B
:102B64000313A101F41FB72DB82DBF2DF309F409E8
:102B7400F30A0319F40AA101A10AF61FC22DC32DF9
:102B8400CC2DF509F609F50A0319F60A0130F70008
:102B94007708A106A201A301730874040319D32DB5
:102BA400D42D0B2EA001A00AE22D01300310F30D49
:102BB400F40DFF3E031DD82D0130F7007708A00760
:102BC400F41FE52DE62DD72D01300310A20DA30D22
:102BD400FF3E031DE72D74087602031DF32D7308D1
:102BE4007502031CF62DF72DFE2D7308F5027408EB
:102BF400031CF603F602221401300310F40CF30C48
:102C0400FF3E031DFF2D0130A002031D0A2E0B2ED3
:102C1400E62D210803190F2E102E152EA209A30943
:102C2400A20A0319A30A2308F4002208F3000800E7
:102C340083120313A9012908803EA6002608A400D4
:102C4400FF300A168A1148230A168A1103308312A8
:102C54000313A8008A30A7005530A600A60B302E17
:102C6400A70B302EA80B302E013083120313A600BD
:102C74002608A90710302902031C412E422E1D2EBE
:102C84001130A0009030A100C030A6002608A20098
:102C94000A168A112D240A168A113330831203135B
:102CA400A0009030A1009030A6002608A2000A16C9
:102CB4008A112D240A168A11103083120313A600D8
:102CC4002608AA002A08D03EA6002608A400FF3041
:102CD4000A168A1148230A168A1103308312031331
:102CE400A8008A30A7005530A600A60B772EA70BA4
:102CF400772EA80B772E013083120313AA022A0819
:102D0400031D852E862E642ED030A6002608A4002E
:102D1400FF300A168A1148230A168A110D308312CD
:102D24000313A800AF30A700B530A600A60B982E59
:102D3400A70B982EA80B982E9F2E08000030831204
:102D440003134C05D40000304D05D50080304E05EA
:102D5400D6007F304F05D700570856045504540455
:102D6400031DB52EB62EBE2E0030CF000030CE008F
:102D74000030CD000030CC0000305005D4000030CD
:102D84005105D50080305205D6007F305305D70059
:102D94005708560455045404031DD12ED22EDA2E9E
:102DA4000030D3000030D2000030D1000030D00019
:102DB400CF1FDD2EDE2E022F0030D4000030D500D0
:102DC4000030D6008030D7004C08D4024D08031CD4
:102DD4004D0FED2EEE2ED5024E08031C4E0FF32E92
:102DE400F42ED6024F08031C4F0FF92EFA2ED702E9
:102DF4005708CF005608CE005508CD005408CC0023
:102E0400D31F052F062F2A2F0030D4000030D50001
:102E14000030D6008030D7005008D4025108031C7B
:102E2400510F152F162FD5025208031C520F1B2FBA
:102E34001C2FD6025308031C530F212F222FD70215
:102E44005708D3005608D2005508D1005408D000C2
:102E54008030CF068030D30653084F02031D3C2F29
:102E640052084E02031D3C2F51084D02031D3C2FF6
:102E740050084C0203183F2F402F422F0310432FBA
:102E84000314080083120313A400240803194B2F0E
:102E94004C2F602FF61F4F2F502F602F7309A60061
:102EA4007409A7007509A8007609A900A60A0319E0
:102EB400A70A0319A80A0319A90A682F7608A90002
:102EC4007508A8007408A7007308A600760875049E
:102ED40074047304031D6F2F702F792F0030F600D4
:102EE4000030F5000030F4000030F300FF2F96307E
:102EF400A0002008A5008B2F0130A0002008A50702
:102F040001300310A90CA80CA70CA60CFF3E031D4E
:102F1400832FFE302905031D902F912F7E2FAD2F77
:102F24000130A0002008A5070130A60700300318CF
:102F34000130A707003003180130A8070030031838
:102F44000130A90701300310A90CA80CA70CA60C8A
:102F5400FF3E031DA52FFF302905031DB22FB32FFC
:102F6400922FBF2F0130A5020130A0000310A60D3F
:102F7400A70DA80DA90DA00BB82FA81BC22FC32FF6
:102F8400C92F023025020318C82FC92FB42F2518C2
:102F9400CC2FCD2FD52FFF30A605FF30A7057F30CE
:102FA400A805FF30A9050310A50C2508A000A10160
:102FB400A201A30118300310A00DA10DA20DA30DB1
:102FC400FF3E031DDD2F2008A6042108A7042208C4
:102FD400A8042308A90424080319F12FF22FF72FBA
:102FE400F61FF52FF62FF72FA9172908F600280842
:0C2FF400F5002708F4002608F300080090
:02400E00FB3F76
:00000001FF
